{
  "_format": "hh-sol-artifact-1",
  "contractName": "AccountFactory",
  "sourceName": "contracts/Account.sol",
  "abi": [
    {
      "inputs": [
        {
          "internalType": "address",
          "name": "owner",
          "type": "address"
        }
      ],
      "name": "createAccount",
      "outputs": [
        {
          "internalType": "address",
          "name": "",
          "type": "address"
        }
      ],
      "stateMutability": "nonpayable",
      "type": "function"
    }
  ],
  "bytecode": "0x608060405234801561001057600080fd5b50610ecf806100206000396000f3fe608060405234801561001057600080fd5b506004361061002b5760003560e01c80639859387b14610030575b600080fd5b61004361003e366004610226565b61005f565b6040516001600160a01b03909116815260200160405180910390f35b6040516000906001600160a01b03831690829061007e60208201610219565b601f1982820381018352601f9091011660408181526001600160a01b038716602083015291925060009183910160408051601f19818403018152908290526100c99291602001610286565b604051602081830303815290604052905060006100ed84838051906020012061011f565b90506001600160a01b0381163b801561010a575095945050505050565b6101148584610135565b979650505050505050565b600061012c8383306101ef565b90505b92915050565b6000815160000361018d5760405162461bcd60e51b815260206004820181905260248201527f437265617465323a2062797465636f6465206c656e677468206973207a65726f60448201526064015b60405180910390fd5b828251602084016000f590506001600160a01b03811661012f5760405162461bcd60e51b815260206004820152601960248201527f437265617465323a204661696c6564206f6e206465706c6f79000000000000006044820152606401610184565b6000604051836040820152846020820152828152600b8101905060ff815360559020949350505050565b610bf6806102a483390190565b60006020828403121561023857600080fd5b81356001600160a01b038116811461024f57600080fd5b9392505050565b6000815160005b81811015610277576020818501810151868301520161025d565b50600093019283525090919050565b600061029b6102958386610256565b84610256565b94935050505056fe608060405234801561001057600080fd5b50604051610bf6380380610bf683398101604081905261002f91610054565b600180546001600160a01b0319166001600160a01b0392909216919091179055610084565b60006020828403121561006657600080fd5b81516001600160a01b038116811461007d57600080fd5b9392505050565b610b63806100936000396000f3fe608060405234801561001057600080fd5b50600436106100725760003560e01c80638da5cb5b116100505780638da5cb5b146100bb578063e21f37ce146100e6578063fe0d94c1146100fb57600080fd5b806306661abd146100775780633a871cdd1461009357806347e1da2a146100a6575b600080fd5b61008060005481565b6040519081526020015b60405180910390f35b6100806100a136600461075a565b61010e565b6100b96100b43660046107f3565b6101b9565b005b6001546100ce906001600160a01b031681565b6040516001600160a01b03909116815260200161008a565b6100ee61034f565b60405161008a919061088d565b6100b96101093660046108db565b6103dd565b7f19457468657265756d205369676e6564204d6573736167653a0a3332000000006000908152601c839052603c8120819061018b906101516101408801886108f4565b8080601f01602080910402602001604051908101604052809392919081815260200183838082843760009201919091525061042b92505050565b6001549091506001600160a01b038083169116146101aa5760016101ad565b60005b60ff1695945050505050565b84811480156101c757508483145b6102185760405162461bcd60e51b815260206004820152601160248201527f4d69736d61746368656420696e7075747300000000000000000000000000000060448201526064015b60405180910390fd5b60005b858110156103465760008787838181106102375761023761093b565b905060200201602081019061024c9190610951565b6001600160a01b03168686848181106102675761026761093b565b905060200201358585858181106102805761028061093b565b905060200281019061029291906108f4565b6040516102a0929190610981565b60006040518083038185875af1925050503d80600081146102dd576040519150601f19603f3d011682016040523d82523d6000602084013e6102e2565b606091505b50509050806103335760405162461bcd60e51b815260206004820152601160248201527f42617463682063616c6c206661696c6564000000000000000000000000000000604482015260640161020f565b508061033e81610991565b91505061021b565b50505050505050565b6002805461035c906109b8565b80601f0160208091040260200160405190810160405280929190818152602001828054610388906109b8565b80156103d55780601f106103aa576101008083540402835291602001916103d5565b820191906000526020600020905b8154815290600101906020018083116103b857829003601f168201915b505050505081565b60408051808201909152601081527f4920686176652045584543555445442100000000000000000000000000000000602082015260029061041e9082610a57565b506104288161044f565b50565b600080600061043a85856104c2565b9150915061044781610507565b509392505050565b6104288160405160240161046591815260200190565b60408051601f198184030181529190526020810180517bffffffffffffffffffffffffffffffffffffffffffffffffffffffff167ff82c50f10000000000000000000000000000000000000000000000000000000017905261066c565b60008082516041036104f85760208301516040840151606085015160001a6104ec87828585610675565b94509450505050610500565b506000905060025b9250929050565b600081600481111561051b5761051b610b17565b036105235750565b600181600481111561053757610537610b17565b036105845760405162461bcd60e51b815260206004820152601860248201527f45434453413a20696e76616c6964207369676e61747572650000000000000000604482015260640161020f565b600281600481111561059857610598610b17565b036105e55760405162461bcd60e51b815260206004820152601f60248201527f45434453413a20696e76616c6964207369676e6174757265206c656e67746800604482015260640161020f565b60038160048111156105f9576105f9610b17565b036104285760405162461bcd60e51b815260206004820152602260248201527f45434453413a20696e76616c6964207369676e6174757265202773272076616c60448201527f7565000000000000000000000000000000000000000000000000000000000000606482015260840161020f565b61042881610739565b6000807f7fffffffffffffffffffffffffffffff5d576e7357a4501ddfe92f46681b20a08311156106ac5750600090506003610730565b6040805160008082526020820180845289905260ff881692820192909252606081018690526080810185905260019060a0016020604051602081039080840390855afa158015610700573d6000803e3d6000fd5b5050604051601f1901519150506001600160a01b03811661072957600060019250925050610730565b9150600090505b94509492505050565b60006a636f6e736f6c652e6c6f679050600080835160208501845afa505050565b60008060006060848603121561076f57600080fd5b833567ffffffffffffffff81111561078657600080fd5b8401610160818703121561079957600080fd5b95602085013595506040909401359392505050565b60008083601f8401126107c057600080fd5b50813567ffffffffffffffff8111156107d857600080fd5b6020830191508360208260051b850101111561050057600080fd5b6000806000806000806060878903121561080c57600080fd5b863567ffffffffffffffff8082111561082457600080fd5b6108308a838b016107ae565b9098509650602089013591508082111561084957600080fd5b6108558a838b016107ae565b9096509450604089013591508082111561086e57600080fd5b5061087b89828a016107ae565b979a9699509497509295939492505050565b600060208083528351808285015260005b818110156108ba5785810183015185820160400152820161089e565b506000604082860101526040601f19601f8301168501019250505092915050565b6000602082840312156108ed57600080fd5b5035919050565b6000808335601e1984360301811261090b57600080fd5b83018035915067ffffffffffffffff82111561092657600080fd5b60200191503681900382131561050057600080fd5b634e487b7160e01b600052603260045260246000fd5b60006020828403121561096357600080fd5b81356001600160a01b038116811461097a57600080fd5b9392505050565b8183823760009101908152919050565b6000600182016109b157634e487b7160e01b600052601160045260246000fd5b5060010190565b600181811c908216806109cc57607f821691505b6020821081036109ec57634e487b7160e01b600052602260045260246000fd5b50919050565b634e487b7160e01b600052604160045260246000fd5b601f821115610a5257600081815260208120601f850160051c81016020861015610a2f5750805b601f850160051c820191505b81811015610a4e57828155600101610a3b565b5050505b505050565b815167ffffffffffffffff811115610a7157610a716109f2565b610a8581610a7f84546109b8565b84610a08565b602080601f831160018114610aba5760008415610aa25750858301515b600019600386901b1c1916600185901b178555610a4e565b600085815260208120601f198616915b82811015610ae957888601518255948401946001909101908401610aca565b5085821015610b075787850151600019600388901b60f8161c191681555b5050505050600190811b01905550565b634e487b7160e01b600052602160045260246000fdfea2646970667358221220fb611a6724074685eeebe27598893970ccfe8622ce38d721b5f00effe7f235be64736f6c63430008130033a2646970667358221220cf2f7a839444848b9ba207b2476e3a13265e3b60f1f30a617425ac9c07d9c60064736f6c63430008130033",
  "linkReferences": {},
  "deployedLinkReferences": {}
}