{
  "_format": "hh-sol-artifact-1",
  "contractName": "AccountFactory",
  "sourceName": "contracts/Account.sol",
  "abi": [
    {
      "inputs": [
        {
          "internalType": "address",
          "name": "owner",
          "type": "address"
        }
      ],
      "name": "createAccount",
      "outputs": [
        {
          "internalType": "address",
          "name": "",
          "type": "address"
        }
      ],
      "stateMutability": "nonpayable",
      "type": "function"
    }
  ],
  "bytecode": "0x608060405234801561001057600080fd5b50610b7e806100206000396000f3fe608060405234801561001057600080fd5b506004361061002b5760003560e01c80639859387b14610030575b600080fd5b61004361003e366004610226565b61005f565b6040516001600160a01b03909116815260200160405180910390f35b6040516000906001600160a01b03831690829061007e60208201610219565b601f1982820381018352601f9091011660408181526001600160a01b038716602083015291925060009183910160408051601f19818403018152908290526100c99291602001610286565b604051602081830303815290604052905060006100ed84838051906020012061011f565b90506001600160a01b0381163b801561010a575095945050505050565b6101148584610135565b979650505050505050565b600061012c8383306101ef565b90505b92915050565b6000815160000361018d5760405162461bcd60e51b815260206004820181905260248201527f437265617465323a2062797465636f6465206c656e677468206973207a65726f60448201526064015b60405180910390fd5b828251602084016000f590506001600160a01b03811661012f5760405162461bcd60e51b815260206004820152601960248201527f437265617465323a204661696c6564206f6e206465706c6f79000000000000006044820152606401610184565b6000604051836040820152846020820152828152600b8101905060ff815360559020949350505050565b6108a5806102a483390190565b60006020828403121561023857600080fd5b81356001600160a01b038116811461024f57600080fd5b9392505050565b6000815160005b81811015610277576020818501810151868301520161025d565b50600093019283525090919050565b600061029b6102958386610256565b84610256565b94935050505056fe608060405234801561001057600080fd5b506040516108a53803806108a583398101604081905261002f91610054565b600180546001600160a01b0319166001600160a01b0392909216919091179055610084565b60006020828403121561006657600080fd5b81516001600160a01b038116811461007d57600080fd5b9392505050565b610812806100936000396000f3fe608060405234801561001057600080fd5b50600436106100675760003560e01c806347e1da2a1161005057806347e1da2a1461009b57806361461954146100b05780638da5cb5b146100b857600080fd5b806306661abd1461006c5780633a871cdd14610088575b600080fd5b61007560005481565b6040519081526020015b60405180910390f35b6100756100963660046105cf565b6100e3565b6100ae6100a9366004610668565b61018e565b005b6100ae610324565b6001546100cb906001600160a01b031681565b6040516001600160a01b03909116815260200161007f565b7f19457468657265756d205369676e6564204d6573736167653a0a3332000000006000908152601c839052603c8120819061016090610126610140880188610702565b8080601f01602080910402602001604051908101604052809392919081815260200183838082843760009201919091525061033a92505050565b6001549091506001600160a01b0380831691161461017f576001610182565b60005b60ff1695945050505050565b848114801561019c57508483145b6101ed5760405162461bcd60e51b815260206004820152601160248201527f4d69736d61746368656420696e7075747300000000000000000000000000000060448201526064015b60405180910390fd5b60005b8581101561031b57600087878381811061020c5761020c610749565b9050602002016020810190610221919061075f565b6001600160a01b031686868481811061023c5761023c610749565b9050602002013585858581811061025557610255610749565b90506020028101906102679190610702565b60405161027592919061078f565b60006040518083038185875af1925050503d80600081146102b2576040519150601f19603f3d011682016040523d82523d6000602084013e6102b7565b606091505b50509050806103085760405162461bcd60e51b815260206004820152601160248201527f42617463682063616c6c206661696c656400000000000000000000000000000060448201526064016101e4565b50806103138161079f565b9150506101f0565b50505050505050565b6000805490806103338361079f565b9190505550565b6000806000610349858561035e565b91509150610356816103a3565b509392505050565b60008082516041036103945760208301516040840151606085015160001a6103888782858561050b565b9450945050505061039c565b506000905060025b9250929050565b60008160048111156103b7576103b76107c6565b036103bf5750565b60018160048111156103d3576103d36107c6565b036104205760405162461bcd60e51b815260206004820152601860248201527f45434453413a20696e76616c6964207369676e6174757265000000000000000060448201526064016101e4565b6002816004811115610434576104346107c6565b036104815760405162461bcd60e51b815260206004820152601f60248201527f45434453413a20696e76616c6964207369676e6174757265206c656e6774680060448201526064016101e4565b6003816004811115610495576104956107c6565b036105085760405162461bcd60e51b815260206004820152602260248201527f45434453413a20696e76616c6964207369676e6174757265202773272076616c60448201527f756500000000000000000000000000000000000000000000000000000000000060648201526084016101e4565b50565b6000807f7fffffffffffffffffffffffffffffff5d576e7357a4501ddfe92f46681b20a083111561054257506000905060036105c6565b6040805160008082526020820180845289905260ff881692820192909252606081018690526080810185905260019060a0016020604051602081039080840390855afa158015610596573d6000803e3d6000fd5b5050604051601f1901519150506001600160a01b0381166105bf576000600192509250506105c6565b9150600090505b94509492505050565b6000806000606084860312156105e457600080fd5b833567ffffffffffffffff8111156105fb57600080fd5b8401610160818703121561060e57600080fd5b95602085013595506040909401359392505050565b60008083601f84011261063557600080fd5b50813567ffffffffffffffff81111561064d57600080fd5b6020830191508360208260051b850101111561039c57600080fd5b6000806000806000806060878903121561068157600080fd5b863567ffffffffffffffff8082111561069957600080fd5b6106a58a838b01610623565b909850965060208901359150808211156106be57600080fd5b6106ca8a838b01610623565b909650945060408901359150808211156106e357600080fd5b506106f089828a01610623565b979a9699509497509295939492505050565b6000808335601e1984360301811261071957600080fd5b83018035915067ffffffffffffffff82111561073457600080fd5b60200191503681900382131561039c57600080fd5b634e487b7160e01b600052603260045260246000fd5b60006020828403121561077157600080fd5b81356001600160a01b038116811461078857600080fd5b9392505050565b8183823760009101908152919050565b6000600182016107bf57634e487b7160e01b600052601160045260246000fd5b5060010190565b634e487b7160e01b600052602160045260246000fdfea2646970667358221220546910ccd8a9e3cbcd3a2445618fbed68de5a8680deefe295347c65316f2b38264736f6c63430008130033a26469706673582212205d646e12e7002c0d273903999305482e3672762f6d5af699b9bb895e3aac065464736f6c63430008130033",
  "linkReferences": {},
  "deployedLinkReferences": {}
}