{
  "_format": "hh-sol-artifact-1",
  "contractName": "Account",
  "sourceName": "contracts/Account.sol",
  "abi": [
    {
      "inputs": [
        {
          "internalType": "address",
          "name": "_owner",
          "type": "address"
        }
      ],
      "stateMutability": "nonpayable",
      "type": "constructor"
    },
    {
      "inputs": [
        {
          "internalType": "uint256",
          "name": "_number11",
          "type": "uint256"
        },
        {
          "internalType": "uint256",
          "name": "_number22",
          "type": "uint256"
        }
      ],
      "name": "MultNum",
      "outputs": [],
      "stateMutability": "nonpayable",
      "type": "function"
    },
    {
      "inputs": [
        {
          "internalType": "uint256",
          "name": "_number1",
          "type": "uint256"
        },
        {
          "internalType": "uint256",
          "name": "_number2",
          "type": "uint256"
        }
      ],
      "name": "addNums",
      "outputs": [],
      "stateMutability": "nonpayable",
      "type": "function"
    },
    {
      "inputs": [],
      "name": "count",
      "outputs": [
        {
          "internalType": "uint256",
          "name": "",
          "type": "uint256"
        }
      ],
      "stateMutability": "view",
      "type": "function"
    },
    {
      "inputs": [
        {
          "internalType": "uint256",
          "name": "_num",
          "type": "uint256"
        }
      ],
      "name": "execute",
      "outputs": [],
      "stateMutability": "nonpayable",
      "type": "function"
    },
    {
      "inputs": [
        {
          "internalType": "address[]",
          "name": "dest",
          "type": "address[]"
        },
        {
          "internalType": "uint256[]",
          "name": "value",
          "type": "uint256[]"
        },
        {
          "internalType": "bytes[]",
          "name": "func",
          "type": "bytes[]"
        }
      ],
      "name": "executeBatch",
      "outputs": [],
      "stateMutability": "nonpayable",
      "type": "function"
    },
    {
      "inputs": [],
      "name": "message",
      "outputs": [
        {
          "internalType": "string",
          "name": "",
          "type": "string"
        }
      ],
      "stateMutability": "view",
      "type": "function"
    },
    {
      "inputs": [],
      "name": "owner",
      "outputs": [
        {
          "internalType": "address",
          "name": "",
          "type": "address"
        }
      ],
      "stateMutability": "view",
      "type": "function"
    },
    {
      "inputs": [],
      "name": "totalAddNum",
      "outputs": [
        {
          "internalType": "uint256",
          "name": "",
          "type": "uint256"
        }
      ],
      "stateMutability": "view",
      "type": "function"
    },
    {
      "inputs": [],
      "name": "totalMultNum",
      "outputs": [
        {
          "internalType": "uint256",
          "name": "",
          "type": "uint256"
        }
      ],
      "stateMutability": "view",
      "type": "function"
    },
    {
      "inputs": [
        {
          "components": [
            {
              "internalType": "address",
              "name": "sender",
              "type": "address"
            },
            {
              "internalType": "uint256",
              "name": "nonce",
              "type": "uint256"
            },
            {
              "internalType": "bytes",
              "name": "initCode",
              "type": "bytes"
            },
            {
              "internalType": "bytes",
              "name": "callData",
              "type": "bytes"
            },
            {
              "internalType": "uint256",
              "name": "callGasLimit",
              "type": "uint256"
            },
            {
              "internalType": "uint256",
              "name": "verificationGasLimit",
              "type": "uint256"
            },
            {
              "internalType": "uint256",
              "name": "preVerificationGas",
              "type": "uint256"
            },
            {
              "internalType": "uint256",
              "name": "maxFeePerGas",
              "type": "uint256"
            },
            {
              "internalType": "uint256",
              "name": "maxPriorityFeePerGas",
              "type": "uint256"
            },
            {
              "internalType": "bytes",
              "name": "paymasterAndData",
              "type": "bytes"
            },
            {
              "internalType": "bytes",
              "name": "signature",
              "type": "bytes"
            }
          ],
          "internalType": "struct UserOperation",
          "name": "userOp",
          "type": "tuple"
        },
        {
          "internalType": "bytes32",
          "name": "userOpHash",
          "type": "bytes32"
        },
        {
          "internalType": "uint256",
          "name": "",
          "type": "uint256"
        }
      ],
      "name": "validateUserOp",
      "outputs": [
        {
          "internalType": "uint256",
          "name": "validationData",
          "type": "uint256"
        }
      ],
      "stateMutability": "view",
      "type": "function"
    }
  ],
  "bytecode": "0x608060405234801561001057600080fd5b50604051610cf2380380610cf283398101604081905261002f91610054565b600180546001600160a01b0319166001600160a01b0392909216919091179055610084565b60006020828403121561006657600080fd5b81516001600160a01b038116811461007d57600080fd5b9392505050565b610c5f806100936000396000f3fe608060405234801561001057600080fd5b50600436106100be5760003560e01c80637ea848c111610076578063b060214d1161005b578063b060214d14610157578063e21f37ce1461016a578063fe0d94c11461017f57600080fd5b80637ea848c1146101235780638da5cb5b1461012c57600080fd5b80633a871cdd116100a75780633a871cdd146100f457806347e1da2a1461010757806378da6da61461011a57600080fd5b806306661abd146100c357806321d34af4146100df575b600080fd5b6100cc60005481565b6040519081526020015b60405180910390f35b6100f26100ed366004610802565b610192565b005b6100cc610102366004610824565b6101a3565b6100f26101153660046108bd565b61024e565b6100cc60045481565b6100cc60035481565b60015461013f906001600160a01b031681565b6040516001600160a01b0390911681526020016100d6565b6100f2610165366004610802565b6103e4565b6101726103f5565b6040516100d69190610957565b6100f261018d3660046109a5565b610483565b61019c81836109d4565b6003555050565b7f19457468657265756d205369676e6564204d6573736167653a0a3332000000006000908152601c839052603c81208190610220906101e66101408801886109e7565b8080601f0160208091040260200160405190810160405280939291908181526020018383808284376000920191909152506104d192505050565b6001549091506001600160a01b0380831691161461023f576001610242565b60005b60ff1695945050505050565b848114801561025c57508483145b6102ad5760405162461bcd60e51b815260206004820152601160248201527f4d69736d61746368656420696e7075747300000000000000000000000000000060448201526064015b60405180910390fd5b60005b858110156103db5760008787838181106102cc576102cc610a2e565b90506020020160208101906102e19190610a44565b6001600160a01b03168686848181106102fc576102fc610a2e565b9050602002013585858581811061031557610315610a2e565b905060200281019061032791906109e7565b604051610335929190610a74565b60006040518083038185875af1925050503d8060008114610372576040519150601f19603f3d011682016040523d82523d6000602084013e610377565b606091505b50509050806103c85760405162461bcd60e51b815260206004820152601160248201527f42617463682063616c6c206661696c656400000000000000000000000000000060448201526064016102a4565b50806103d381610a84565b9150506102b0565b50505050505050565b6103ee8183610a9d565b6004555050565b6002805461040290610ab4565b80601f016020809104026020016040519081016040528092919081815260200182805461042e90610ab4565b801561047b5780601f106104505761010080835404028352916020019161047b565b820191906000526020600020905b81548152906001019060200180831161045e57829003601f168201915b505050505081565b60408051808201909152601081527f492068617665204558454355544544210000000000000000000000000000000060208201526002906104c49082610b53565b506104ce816104f7565b50565b60008060006104e0858561056a565b915091506104ed816105af565b5090505b92915050565b6104ce8160405160240161050d91815260200190565b60408051601f198184030181529190526020810180517bffffffffffffffffffffffffffffffffffffffffffffffffffffffff167ff82c50f100000000000000000000000000000000000000000000000000000000179052610714565b60008082516041036105a05760208301516040840151606085015160001a6105948782858561071d565b945094505050506105a8565b506000905060025b9250929050565b60008160048111156105c3576105c3610c13565b036105cb5750565b60018160048111156105df576105df610c13565b0361062c5760405162461bcd60e51b815260206004820152601860248201527f45434453413a20696e76616c6964207369676e6174757265000000000000000060448201526064016102a4565b600281600481111561064057610640610c13565b0361068d5760405162461bcd60e51b815260206004820152601f60248201527f45434453413a20696e76616c6964207369676e6174757265206c656e6774680060448201526064016102a4565b60038160048111156106a1576106a1610c13565b036104ce5760405162461bcd60e51b815260206004820152602260248201527f45434453413a20696e76616c6964207369676e6174757265202773272076616c60448201527f756500000000000000000000000000000000000000000000000000000000000060648201526084016102a4565b6104ce816107e1565b6000807f7fffffffffffffffffffffffffffffff5d576e7357a4501ddfe92f46681b20a083111561075457506000905060036107d8565b6040805160008082526020820180845289905260ff881692820192909252606081018690526080810185905260019060a0016020604051602081039080840390855afa1580156107a8573d6000803e3d6000fd5b5050604051601f1901519150506001600160a01b0381166107d1576000600192509250506107d8565b9150600090505b94509492505050565b60006a636f6e736f6c652e6c6f679050600080835160208501845afa505050565b6000806040838503121561081557600080fd5b50508035926020909101359150565b60008060006060848603121561083957600080fd5b833567ffffffffffffffff81111561085057600080fd5b8401610160818703121561086357600080fd5b95602085013595506040909401359392505050565b60008083601f84011261088a57600080fd5b50813567ffffffffffffffff8111156108a257600080fd5b6020830191508360208260051b85010111156105a857600080fd5b600080600080600080606087890312156108d657600080fd5b863567ffffffffffffffff808211156108ee57600080fd5b6108fa8a838b01610878565b9098509650602089013591508082111561091357600080fd5b61091f8a838b01610878565b9096509450604089013591508082111561093857600080fd5b5061094589828a01610878565b979a9699509497509295939492505050565b600060208083528351808285015260005b8181101561098457858101830151858201604001528201610968565b506000604082860101526040601f19601f8301168501019250505092915050565b6000602082840312156109b757600080fd5b5035919050565b634e487b7160e01b600052601160045260246000fd5b808201808211156104f1576104f16109be565b6000808335601e198436030181126109fe57600080fd5b83018035915067ffffffffffffffff821115610a1957600080fd5b6020019150368190038213156105a857600080fd5b634e487b7160e01b600052603260045260246000fd5b600060208284031215610a5657600080fd5b81356001600160a01b0381168114610a6d57600080fd5b9392505050565b8183823760009101908152919050565b600060018201610a9657610a966109be565b5060010190565b80820281158282048414176104f1576104f16109be565b600181811c90821680610ac857607f821691505b602082108103610ae857634e487b7160e01b600052602260045260246000fd5b50919050565b634e487b7160e01b600052604160045260246000fd5b601f821115610b4e57600081815260208120601f850160051c81016020861015610b2b5750805b601f850160051c820191505b81811015610b4a57828155600101610b37565b5050505b505050565b815167ffffffffffffffff811115610b6d57610b6d610aee565b610b8181610b7b8454610ab4565b84610b04565b602080601f831160018114610bb65760008415610b9e5750858301515b600019600386901b1c1916600185901b178555610b4a565b600085815260208120601f198616915b82811015610be557888601518255948401946001909101908401610bc6565b5085821015610c035787850151600019600388901b60f8161c191681555b5050505050600190811b01905550565b634e487b7160e01b600052602160045260246000fdfea26469706673582212209d61927c4524f1965a2c01729a717b05190e78f94043d239838d163e2131ee0864736f6c63430008130033",
  "linkReferences": {},
  "deployedLinkReferences": {}
}